:020000040003F7
:10C000004034002065C203007FC2030081C20300E8
:10C010000000000000000000000000000000000020
:10C0200000000000000000000000000083C20300C8
:10C03000000000000000000085C2030087C203006A
:10C0400089C2030089C2030089C2030089C20300B8
:10C0500089C2030000000000B5D7030089C20300B5
:10C0600089C2030089C2030089C2030089C2030098
:10C0700089C2030089C2030089C2030089C2030088
:10C0800089C20300B3D0030089C2030089C2030040
:10C09000C9D0030089C20300B1D9030089C20300DB
:10C0A00089C2030089C203000000000000000000F4
:10C0B0000000000000000000000000000000000080
:10C0C00000F002F800F040F80CA030C8083824183E
:10C0D0002D18A246671EAB4654465D46AC4201D1C0
:10C0E00000F032F87E460F3E0FCCB64601263342B2
:10C0F00000D0FB1AA246AB46334318476C30000011
:10C100008C300000103A02D378C878C1FAD85207B0
:10C1100001D330C830C101D504680C6070470000FD
:10C120000023002400250026103A01D378C1FBD853
:10C13000520700D330C100D50B6070471FB5C04611
:10C14000C0461FBD10B510BD02F0C0FF1146FFF77D
:10C15000F5FF00F0C0F802F0D8FF03B4FFF7F2FFDC
:10C1600003BC02F0DDFF0000026882F30888436828
:10C1700018470000401E00BF00BF00BF00BF00BF47
:10C1800000BF00BF00BF00BF00BF00BF00BFF1D1B4
:10C190007047000070B505460C46164602E00FCC0D
:10C1A0000FC5103E102EFAD2082E02D303CC03C5C1
:10C1B000083E042E07D301CC01C5361F03E02178C9
:10C1C0002970641C6D1C761EF9D270BD10B500F08C
:10C1D0001DF8002805D01F491D484860C8131E4996
:10C1E00088611E48018CC9B201290ED1818C0907D2
:10C1F0000BD1018D0906090F042906D1808D000697
:10C20000000F02D116490120886010BD1348018C2F
:10C21000C9B2012917D1818C090714D1018D0906F2
:10C220000A0F03D1828D1206120F0ED0090F0129B9
:10C2300003D1828D1206120F07D0032903D1808DFE
:10C240000006000F01D00020704701207047000059
:10C25000DFFF07C000050040006C0040C00F00F089
:10C260000006004003210C4802680A4302600B48A4
:10C2700002680A4302600A4880470A480047FEE70E
:10C28000FEE7FEE7FEE7FEE7FEE700000648074997
:10C29000074A084B70470000240500405405004041
:10C2A000CDC10300C1C0030040280020403400205D
:10C2B000402C0020402C002001208249C0038860CF
:10C2C00000F08AF80A4601467F48FFF7F5FF10B5EF
:10C2D00001F0E4FC10BD08B5082000F085F8092045
:10C2E00000F082F80A2000F07FF80F2000F07CF8C0
:10C2F00076480F2140698903884213D10120000745
:10C3000000690124A402A0420FD171480090714B32
:10C3100005220321002000F0FDFE00280AD06EA2B5
:10C320009D2105E06CA2EB2101E06BA2EC21002035
:10C33000FFF7C2FF67490120143901F07BFA00289A
:10C3400002D065A29221F3E7032066490004086049
:10C3500000F05FF8644A1421082001F02FF900284A
:10C3600002D05DA2DE21E3E7564E30695F4D000644
:10C37000C00F04D0284600F086FA00280AD1B46025
:10C3800000F001FB002802D053A2FD21D0E70A20D3
:10C3900000F031F8284600F076FA00280ED0082088
:10C3A00000F029F8092000F026F80A2000F023F810
:10C3B0000F2000F020F8284600F011FB082000F0C4
:10C3C0001AF8092000F017F80A2000F014F80F20DE
:10C3D00000F011F800F000F8BFF34F8F45494448D2
:10C3E000C860BFF34F8FFEE73E4A032180001C3A2E
:10C3F000801801607047012181403248C160704758
:10C400001CB5019100903C4A0821684601F0EAF809
:10C410001CBD00B5394B85B00FCB03936B4607C3EA
:10C42000684618DF002802D02BA2C42125E00F2087
:10C43000800313DF002802D027A2C7211DE02A496C
:10C440002F4B50225039082001F08EFA002802D0DC
:10C4500021A2CA2111E0002069460490087404A8B2
:10C4600060DF002802D01CA2D22106E0254801F09E
:10C4700097FA002803D018A2D621FFF71DFF05B0B8
:10C4800000BD10B50246082905D0FF211EA21B31B0
:10C490000020FFF711FF11685068884710BD10B5E4
:10C4A0000021254A084601F09DF810BD10B500296D
:10C4B00004D022A299210020FFF7FEFE01F016FA17
:10C4C00010BD000000050050EFBEADDE00100010F2
:10C4D00001C40300042100202E2E5C6D61696E2EC4
:10C4E000630000001C07005094230020006001003E
:10C4F0000400FA0500ED00E083C4030048F10300E6
:10C500009FC40300CFC203002E2E5C2E2E5C2E2E65
:10C510005C2E2E5C2E2E5C496E636C7564655C61CE
:10C5200070705F636F6D6D6F6E5C6170705F74696A
:10C530006D65722E68000000ADC403002E2E5C2EC7
:10C540002E5C2E2E5C2E2E5C2E2E5C496E636C753E
:10C5500064655C73645F636F6D6D6F6E5C736F6653
:10C56000746465766963655F68616E646C65722E7C
:10C570006800000010460A4610B5B2494C68042C09
:10C5800003D1022A01D1002806D0002803D0AEA290
:10C590004D21FFF791FE10BD8A69002AFBD0194694
:10C5A000904710BD10B5A74B01201870032000F074
:10C5B000A3F910BD10B5A34C2078002801D00820A5
:10C5C00010BD606900F0AAFE002803D09EA2702171
:10C5D000FFF772FE0F2100224904606900F034FE6B
:10C5E000040003D098A27321FFF766FE204610BD19
:10C5F000F0B59B4987B09948924D086000242927DF
:10C600006C7029463F036C802431954801F0FEFC94
:10C6100000281CD10B2029464003243148602846BD
:10C620000146496AC1611C3013264760360302A8DF
:10C6300000F000FA0498FE2802D13868401C0ED0A1
:10C64000804831461C3001F02DFD002802D06C607E
:10C6500007B0F0BD0220019A009900F04DF9794829
:10C66000804A0021143000F0A8FD002803D076A2F3
:10C67000A421FFF721FE0F2100224904686900F080
:10C68000E3FD002803D070A2A821FFF715FEEE609D
:10C6900001202C6168600020DAE76A4988617047F0
:10C6A00070B5684C0546E068854201D90C2070BD24
:10C6B000A80701D0062070BD6068012801D00820BD
:10C6C00070BDFFF777FF0028FAD10221A5606160F5
:10C6D00070BD70B5050004D0287A800703D0102003
:10C6E00070BD0E2070BD574C6068022805D003282D
:10C6F00003D0042803D0082070BD0420606068685F
:10C70000A168860020698019884204D90020C043AE
:10C7100020610C2070BDFFF74DFF0028FAD1494879
:10C72000A96832461C30236901F08CFC0028F1D145
:10C73000216989192161A2689142EBD0092070BD5D
:10C74000F8B5404C05466068022802D0032805D1A0
:10C7500001E0032060602069002801D00820F8BDB6
:10C76000FFF728FF0028FAD13D4B0021403B08E0AD
:10C77000AA688E00965962789700521CDE5162704A
:10C78000491C6A688A42F3D8F8BD70B52D4C6068C0
:10C79000042805D105206060A1682069884201D085
:10C7A000082516E0FFF706FF050012D12920002218
:10C7B0000003A16801F076F8294960804039627869
:10C7C0000988002A03D0884201D00B2070BD0620C2
:10C7D0006060284670BD3EB51A4C6068062802D0DD
:10C7E000082528463EBD606900F098FD002804D069
:10C7F000FF2115A29531FFF75FFD1248A168243093
:10C8000001F050FC002804D0FF210FA29931FFF75E
:10C8100053FD0C4800231C3041680830A26801F029
:10C8200011FC0500DDD1009061886A469180A26804
:10C830000292019900F060F8D3E710B5042000F0EF
:10C840005BF810BD042000202E2E5C6466755F64CA
:10C8500075616C5F62616E6B2E63000075C50300CD
:10C8600024250020A5C5030010B57C480368012BD2
:10C8700002D1022900D10160100003D078A2342136
:10C88000FFF71AFD10BD38B50B2500246D03401BC2
:10C8900015D1684600F0F6F80098016801290ED11C
:10C8A0008188002908D0C1680022284600F0FAFFDC
:10C8B00000998988814201D1012400E000242046AA
:10C8C00038BD10B5044665481021001D01F064FB19
:10C8D000002803D062A28521FFF7EEFC5F48002309
:10C8E00010222146001D01F0C6FA002803D05CA2E8
:10C8F0008B21FFF7E1FC10BD17B581B0684600F051
:10C90000C1F801995A48554C002913D003291CD06D
:10C91000FE22012923D002292CD0042909D101F0BB
:10C920005EFD002803D04EA2BE21FFF7C5FC042007
:10C9300020601FBD6946098981800399C16001217A
:10C94000FF2282600160216010E001F048FD0028B4
:10C9500003D043A2A421FFF7AFFC0320E8E70021A6
:10C9600081800260C1600099896881604048FFF75A
:10C97000A8FF1FBD00990B6803608B888380C9687E
:10C980008260C160F2E73EB53A4800901020019005
:10C990000120029001F0E8F900281FD12F496846D4
:10C9A000091D01F00AFA002818D1FFF721FE00281E
:10C9B00014D101F011FE0546284C40DF002803D0B9
:10C9C00027A24621FFF778FC00F082FE20680228AB
:10C9D00003D0032801D00428EFD128463EBD70B50E
:10C9E00011DF002804D0FF211DA20A31FFF764FCEB
:10C9F000214900200B68204C012180340A468240E6
:10CA00001A4204D0C506ED0E0A46AA402260401C18
:10CA1000C0B22028F2D30B246403204613DF002881
:10CA200004D0FF210EA21431FFF746FC204600F08F
:10CA300025F870BD1FB50949044600231022091DC1
:10CA4000684601F05BFA0098206068468088A08004
:10CA50000398E0600298A0601FBD00003020002015
:10CA60002E2E5C626F6F746C6F616465722E630052
:10CA70003025002069C8030000E100E010B5FFF791
:10CA800073FB10BD014901607047000000FC03000A
:10CA900030B585B0002822D00388FA4CA34220D0BC
:10CAA000F94B1B78002B1CD0F74B10255B1C1D701D
:10CAB0005970002401259A70032269460A82009465
:10CAC000019402940394C2890A808D708C8004A919
:10CAD0000291039300886946A6DF05B030BD0E20A1
:10CAE000FBE70820F9E7F0B589B00446022768465D
:10CAF00007700D468783608A08AB07AA0021A5DF6F
:10CB00000026002804D0616A00291AD0884718E05E
:10CB10006846008CC007C00F13D068468680208806
:10CB20006946A8DF002812D1A97E284601221B30C1
:10CB30000B0002F0FCFA093F0E1E202224263D289D
:10CB40003F00FF20FE30694688802088A8DF09B0BA
:10CB5000F0BD0496298B022902D26846067502E0D0
:10CB600069460A750690226A04A92046904700206B
:10CB7000EDE70492F7E70497F5E7032014E00420BB
:10CB800012E0052010E0298B032905D20322082199
:10CB90002046FFF77DFFDAE741780278080210436C
:10CBA0006946888202D006200490DCE70720FBE774
:10CBB0000920F9E70322EBE730B585B00D46040004
:10CBC00032D0002D30D0286800282DD00020C0435E
:10CBD000AE4B20800FCB049301AB07C3AC48694632
:10CBE0000880891C01A863DF00281CD1A21C6946AB
:10CBF0000120A0DF002816D16846807820712046E9
:10CC000000F0C0F800280ED1204600F0F9F8002806
:10CC100009D1286820626868002800D060629A49BB
:10CC200001200870002058E70E2056E73EB5002886
:10CC300020D000291ED0026A002A1BD00A88102AA0
:10CC400019D0112A28D0502A17D0512A12D10446BF
:10CC5000891D087802280DD14888E289904209D1BF
:10CC6000891C2046FFF73FFF002803D0616A002996
:10CC700000D088473EBD898810E0CA88C3889A42A0
:10CC8000F8D1082200928A7F6B461A7120310291F6
:10CC9000026A694690473EBD0021C94301803EBDFE
:10CCA000F0B585B00A4605002DD028887549884220
:10CCB0002BD075480078002827D0734C1020641CB6
:10CCC0002070072060700127A77003216846018249
:10CCD0000026E11C104600F04CF801466846008A28
:10CCE0000918684601820096019602960396E98922
:10CCF00001808770868004A8039402902888694682
:10CD0000A6DF05B0F0BD0E20FBE70820F9E7F0B57F
:10CD100085B00A46050028D028885A49884226D07E
:10CD200059480078002822D0574C1120641C2070EC
:10CD30000127684607820026611C104600F019F89A
:10CD400001466846008A09186846018200960196E5
:10CD500002960396E98901808770868004A803946F
:10CD6000029028886946A6DFCBE70E20C9E7082095
:10CD7000C7E70870020A4A70020C8A70000EC87079
:10CD80000420704730B58FB005461C21684602F07C
:10CD9000DAF86946087804210843694608700024D7
:10CDA00001940394049405940694287908A9887042
:10CDB00037486946801C0884601C00070794000FF0
:10CDC0000C77103048778A7FF9200240921CE720C8
:10CDD0000240012002438A77142109A802F0B3F827
:10CDE00008A8099007A80A9069468C851420CC856C
:10CDF00008860D946888AB1D09AAA2DF0FB030BD6C
:10CE000030B58FB005461C21684602F09CF8694693
:10CE1000087808210843102210436946087000244E
:10CE200001940394049405940694287908A98870C1
:10CE300017486946401C0884601C00070794000FCF
:10CE40000C7710304877887FF9210840801CF72143
:10CE5000084010430121084369468877142109A836
:10CE600002F071F808A8099007A80A9069468C8515
:10CE70001720CC8508860D942B4668880E3309AAA6
:10CE8000A2DFBBE7FFFF00003C20002058F10300B9
:10CE9000301500008307FF22DB0E9A408907090E38
:10CEA000994000280BDA0007000F08388308FF4874
:10CEB0009B001B18D86990430843D86170478308CA
:10CEC000FB489B001B181868904308431860704784
:10CED00070B50124F74960040860F7494010886084
:10CEE000F54940398860F54D6C602F20FFF742F915
:10CEF000AC60F34D00242F206C61FFF73BF92C71DF
:10CF000070BDF0B5EE4F2821BC6841430D19396959
:10CF10004A1C09D028224A431619AB68B2689342CA
:10CF200004D8D21AB26069623861F0BD0A4602E0E4
:10CF30000A46796A9B1B4E1C0BD028264E43371994
:10CF4000BE689E42F4D328264E433619B768FF1AAE
:10CF5000B760AB60696228214A4311194862F0BD8D
:10CF6000F8B5D74C2569681C36D0D64800264068ED
:10CF70006169401A07023F0A1AE028204543A06869
:10CF80002A189068B84215D8A3693F1A8619556ABD
:10CF9000002B0AD0116AD0699847002808D0FF21D9
:10CFA000C9A26431FFF788F902E0D169106A8847A5
:10CFB000681CE2D1A178E078814206D1401CC0B261
:10CFC000E070022801D10020E070BD490006800D0C
:10CFD0001C310E5000F0CAF9F8BDF8B50446B84847
:10CFE00001690091467856E0B548F100C2688D1895
:10CFF0004BE0601C07D0B24A28219268614320466A
:10D0000089184C6A20E02878182141436A68401C3E
:10D01000C0B252182870A978884201D10020287027
:10D02000A74B506828219B684143C9181368012BFE
:10D030002DD10B7E002B2AD19368CB60D3680B6176
:10D0400013694B6152690A629D4ACF685369BC46B5
:10D05000FA1A1202A84F120ABA4202D20B69D21867
:10D0600009E062469A1A12020B69120A934201D928
:10D070009A1A00E000228A600022CA600A61012236
:10D080000A76921E4A62FFF73CFF601CB1D12878F5
:10D0900069788842ADD13046761EF6B20028A3D119
:10D0A000874801690098814201D00120F8BD002025
:10D0B000F8BD92490020086048608860C8608F49C8
:10D0C0004039086048604BE7F0B5002087B0C043A6
:10D0D00002907B4846690569684600F04CF90746AE
:10D0E00000F066F90446002F08D002AA31460098E5
:10D0F00000F0A6F90298FFF770FF06E00298FFF72C
:10D100006CFF002801D1002C02D0284600F0C1F9A4
:10D1100007B0F0BDFFB59807002481B01E46154644
:10D120000F4600280BD1002E09D0FFF7D1FE64492D
:10D130000A9888610F70324600208E6008E0072050
:10D1400005B0F0BD28234343D4509B181C76401CE7
:10D15000B842F7DB28204743BB19032048700F462D
:10D160001846CB6019461830002218232E465E431D
:10D17000D3005B181C705C709D7058603018521C96
:10D18000032AF5DB0020C0433861BC70FC70012429
:10D190005B482405046003211420FFF77BFE45480B
:10D1A00080380460474C0198A06003211120FFF7EC
:10D1B00071FE606878610020C2E770B5404CA568D8
:10D1C000002D06D0002A06D0002804D000232478A1
:10D1D00009E0082070BD072070BD28265E43AE59C7
:10D1E000002E04D05B1CA342F7DB042070BD282472
:10D1F00001265C432E516419E261616003600020E6
:10D2000070BD2A494868C005C00D17D0103807D531
:10D210000207120F083A920892005118C96904E0F7
:10D220008108234A8900891809688007C00EC14017
:10D230000806800F012803D0032803D0022070477E
:10D240000020704701207047FEB504461C48174671
:10D2500082680D46002A0CD001788C4201D2052D3F
:10D2600001D20720FEBD2146282359435358012BE4
:10D2700001D00820FEBD8818406801284AD0002649
:10D28000FFF7BFFFC0000E490190C968401869460A
:10D2900000F045F900283FD00121446001600949B0
:10D2A00049680830E2C0064901982BE000ED00E033
:10D2B00000E400E080E100E0401301400010014084
:10D2C00044200020001501402E2E5C2E2E5C2E2EB8
:10D2D0005C2E2E5C2E2E5C536F757263655C6170E4
:10D2E000705F636F6D6D6F6E5C6170705F74696DA0
:10D2F00065722E6300000000FFFF7F0040110140B7
:10D3000080E200E0C96841180098487000F02EF8EB
:10D310000020FEBD2E46B3E70420FEBDF8B5A14DAA
:10D320000446A868002809D029788C4201D3072038
:10D33000F8BD282161434058012801D00820F8BDDC
:10D34000FFF75FFFC600E8686946301800F0E7F8AD
:10D35000002809D0022112C0E868311800984870EE
:10D3600000F004F80020F8BD0420F8BD01208E492B
:10D3700000050860704710B58A4900238A78CC7888
:10D38000A24212D0521CD2B28A70022A00D18B70F3
:10D390008A78844B92001C339A58026048691018AE
:10D3A0000002000A4861012010BD0360002010BD8A
:10D3B000F8B57C4801690091457833E07948E90087
:10D3C000C0680E1834782AE0182060437168641C25
:10D3D0000818B178E4B2A14200D100240168022902
:10D3E00002D003291BD113E06E4A406828219268BD
:10D3F00041438F18397E002911D000F0A2F8002097
:10D4000038760CE028277843C0180276406A03E09B
:10D41000644900228B680869471CF3D10861707861
:10D42000A042D1D128466D1EEDB20028C6D15D487C
:10D4300001690098814201D00120F8BD0020F8BDAB
:10D44000F7B5584C0025A76823691EE028215943E9
:10D45000C9198E68864202D9301A886017E0801B8D
:10D46000751900268E600E764E699C464B6AB6464C
:10D47000002E0AD0019E76193602360ACE60764614
:10D480000E6116684E6261461160591CDED123613F
:10D49000FEBDF8B5434801694A1C3DD028225143DE
:10D4A000826889188E6841494C6847690079E11B98
:10D4B0000D022D0AED1C002815D101203C4A000464
:10D4C00050603B4A403A5060374940008031086024
:10D4D000384908603849012008602F20FEF74AFECD
:10D4E000304901200871B54200D23546E8190002E2
:10D4F0002E49000A403108602C494968001B091B6D
:10D500000902090A0002C91C000A814203D901204C
:10D51000254940040860F8BDFFF7DAFCF8BD427801
:10D520008378521C934200D100220378934201D1A8
:10D53000002070470A60416840781822504308185C
:10D54000704770B5174E3569B26829460C4606E03B
:10D55000844207D0254628235C43A3185C6A631CD9
:10D56000F6D170BD002BFCD0A54208D12820414344
:10D570008818406A3061401C01D1FFF7A9FCB168EE
:10D58000282044436018282382685D43406A6B1852
:10D590005862431CE5D028235843401881688918F5
:10D5A000816070BD4420002000E200E000150140D1
:10D5B0004013014000E100E00010014030B5CB0015
:10D5C00008339DB293070024002B01D0072030BD03
:10D5D000564B9A605219DA605C701C7058809980C2
:10D5E000002030BDF7B5514C82B060880F468142B3
:10D5F0006CD80020694608704E494D4E4868C005F9
:10D60000C00D16D0103807D50207120F083A92083D
:10D6100092005118C96904E08108474A89008918B5
:10D6200009688007C00EC1400806850F012D01D191
:10D630000AE0042568462EDF02280BD0002803D01C
:10D640003EA25921FEF738FE6078A188884203D2B5
:10D65000401C02E072B6F7E700202278C0B2904288
:10D6600007D066786078884201DA401C00E000202C
:10D670006070012D0BD062B6684600782FDF02285B
:10D6800005D0002803D02DA26121FEF715FE284801
:10D69000864219D0A068F5000499415102990029E9
:10D6A0000CD0002F0AD060883A464643E068301814
:10D6B00001F0EAFBA0682818878002E00021281802
:10D6C0008180002005B0F0BD0420FBE70920F9E7C8
:10D6D0000EB504E068468188029A0098904702AA35
:10D6E00001A9684600F003F80028F3D00EBD70B51C
:10D6F0000E4B05245D781E78B54215D01D781C7838
:10D700009E88B44201DA641C00E000241C705C882E
:10D71000DE686C43A41904609B68E800C418A48800
:10D720000C80185800241060204670BD682000202E
:10D73000FFFF000000ED00E000E400E02E2E5C2E74
:10D740002E5C2E2E5C2E2E5C2E2E5C536F7572631B
:10D75000655C6170705F636F6D6D6F6E5C61707042
:10D760005F7363686564756C65722E63000000000A
:10D77000F0B500220123032636041F4697400C46CD
:10D780003C420FD0C5682C463C420FD03446BD43C6
:10D79000C5603C4D97007D192F68B7432F602F68F7
:10D7A00027432F60521C202AE7D3F0BD01246404D4
:10D7B0003D43EDE7F8B53448056934490020C863B6
:10D7C000074632E014213A464A43416880685418BB
:10D7D0000121B940014226D0E068C64320686E406E
:10D7E000064031462046FFF7C3FF274800696840DE
:10D7F0000CD00543E0682168C043684008400146FA
:10D8000000902046FFF7B4FF009806433046A16819
:10D81000A84301402A4660683240104002460A434D
:10D8200001D0226990477F1CFFB2194841788F428E
:10D83000C8D3F8BD10B5002903D08A070024002AF8
:10D8400001D0072010BD124A0B4651601070142100
:10D85000547041431846946001F075FB00200D4957
:10D86000C04388600C48402101600C4A1068FF23C7
:10D870001B0498430B041843106009480160002002
:10D8800010BD00000007005000050050406100403E
:10D89000782000200063004080E200E004E400E023
:10D8A00000E100E010B50446002A02D010880022F2
:10D8B00010E00A48FBE7030A00020343A05C58405B
:10D8C00003061B0F43401803584083B21806C00CD0
:10D8D0005840521C8A42EED310BD0000FFFF0000EA
:10D8E00010B508461146FEF7EDFC10BDF8B5394CF1
:10D8F0002078002837D02069002807D00026E0686B
:10D90000002805D00025002E04D013E00126F6E7FC
:10D910000125F8E7684651DF052806D0002806D023
:10D920002DA26921FEF7C8FC04E0012602E021696E
:10D9300000988847002D12D1608869460880A06849
:10D9400061DF052806D0002806D023A28021FEF73B
:10D95000B3FC04E0012502E0E168A0688847002EDE
:10D96000D8D0002DCFD0F8BD70B5002901D08C07DC
:10D9700001D0072070BD174C0125A16062802449A9
:10D98000636010DF0028F5D12570162026DF70BDFA
:10D99000002803D00F49C860002070470E20704750
:10D9A000002803D00B490861002070470E20704703
:10D9B00010B508484068002808D08047002804D0E7
:10D9C000FF2105A23331FEF777FC10BDFFF78EFF74
:10D9D00010BD0000842000202E2E5C2E2E5C2E2EEA
:10D9E0005C2E2E5C2E2E5C536F757263655C7364C7
:10D9F0005F636F6D6D6F6E5C736F6674646576697F
:10DA000063655F68616E646C65722E630000000080
:10DA1000E1D8030018225043FA4A0021801801710E
:10DA200081604161012281610261C1607047FFB57F
:10DA300081B0F54C049B039A054626691A430320DE
:10DA40000092002E03D1002A0ED001222261276904
:10DA5000039A0126360792003B0001F068FB072776
:10DA600007162940526127000222EFE770693269E8
:10DA700092B25043326933691204920C9BB25943FB
:10DA800021DF002812D102210FE0084620DF002804
:10DA90000CD10399002901D0032106E00499002943
:10DAA00016D12978042946D017E0216105B0F0BDD0
:10DAB0007069326992B25043326993B24B43014666
:10DAC0001846039A21DF0028F0D10499002901D0DB
:10DAD0000421EAE72978042920D00521E5E77369C4
:10DAE0003069366980B2434368681B189B18B6B228
:10DAF0004E43301880181946049A21DF0028E9D0D7
:10DB0000D4E7306980B24843696880188A08696937
:10DB100021DF0028CAD1009900290CD00621C4E7D2
:10DB20007069316989B24843316989B201F01EFADE
:10DB300020DF0028BAD10721B7E7F8B5B14918238B
:10DB40000A780F205A435418241DAF4922782669B9
:10DB5000CF68022A1BD001252D07042A2AD0052AC6
:10DB60005BD1286981B2304601F000FA0146A36812
:10DB700028699A1980B24843101A820860681818F8
:10DB8000861928694B1C80B25843801B34E0B802C8
:10DB900062686169121A0918A368301818180123FD
:10DBA0009B029A4202D2920821DF31E0FF22013229
:10DBB00021DF2DE0E268934914205043F4314018EE
:10DBC000001D0BC8B04203D160685943814218D090
:10DBD000022A16D0286981B2304601F0C7F9014601
:10DBE000286980B24843301A820828694B1C80B2E9
:10DBF000584363689B19C01A83082046FFF717FF34
:10DC000006E0286981B2304601F0B0F9C01920DF82
:10DC1000002802D17B4901228A70F8BDF8B5794C01
:10DC2000069E65780A2D1DD027787D19EDB20A2D44
:10DC300001D30A3DEDB218277D432D192871AA6141
:10DC400003C9EE60AB6069612861A17800200029FA
:10DC500004D1FFF772FF112800D100206178491C20
:10DC60006170F8BD0420F8BD38B502466548182338
:10DC700001785943081803690179022B0AD014244A
:10DC80006343604CF434E458836800938369103034
:10DC9000A04738BD5C4B14331C68F5E7F8B5594B09
:10DCA0009978012914D1002557499D700A69082ADD
:10DCB00005D002280FD003280AD10D2006E0022843
:10DCC00007D00D7000F012FA002801D0FFF7CCFF4A
:10DCD000F8BD0D61F6E74B48182403784A496343C1
:10DCE000CC681818641C001DCC600378022B05D189
:10DCF0004668A102B14201D3012700E00027052BAD
:10DD000001D1072A03D00021042B02D003E0012116
:10DD1000FAE7072A03D00026042B02D007E00126E9
:10DD2000FAE74068A302834201D3002A1AD00020F8
:10DD3000314301433943C5D0334E28463561FFF79F
:10DD400093FF304C2078FFF765FEF5606078401E49
:10DD500060702078401CC0B220700A28B2D30A3804
:10DD60002070AFE70120E3E770B50025264C254879
:10DD7000E56025610570457085702E463046FFF7D9
:10DD800049FE761C0A2EF9D30122120765605169FB
:10DD900028461269491E92B25143E560A1601949B3
:10DDA000F4310D608D600D61CD60174914310D6047
:10DDB000888001212170206170BDF0B5124A13786E
:10DDC000002B23D0002823D0002921D00368002B6A
:10DDD0001ED00124240743682569ADB2AB420FD899
:10DDE000102B0DD38568002D0AD092685D436669BB
:10DDF000AD182769BFB27E43B54201D89B0709D051
:10DE00000720F0BD40250020982000200820F8E7DA
:10DE10000E20F6E7BE4D6B68012B1BD00B604A60ED
:10DE2000194614256943BB4D4E19726007686F503F
:10DE30004168B1608168F1604168806800254143B4
:10DE40006D1C2069ADB280B2884205D2206980B2D3
:10DE5000091A02E00420D4E70021206980B2821868
:10DE6000206980B28842EBD9A9485B1C8260356189
:10DE700043600020C5E7F8B50446A5481E46007873
:10DE800015460F46002807D0002F07D0002C05D0DC
:10DE90002068002817D103E00820F8BD0E20F8BD47
:10DEA0009C48016800290ED0C268816840684A43D6
:10DEB00010186268904206D9002D04D0A94202D3FE
:10DEC000A819884201D90720F8BD384600F008F9A2
:10DED000002811D0304600F003F900280CD060680B
:10DEE00000F0FEF8002807D02B463A4621460220D3
:10DEF0000096FFF793FEF8BD1020F8BDFFB58448EB
:10DF000081B000781F4616460D46002808D0002D27
:10DF100008D00198002805D02868002817D103E010
:10DF20000820C3E50E20C1E57A4C206800280ED0F9
:10DF3000E168A0686268414389186A68914206D91D
:10DF4000002E04D0B04202D3F119814201D907203A
:10DF5000ACE5019800F0C4F800281BD0384600F06A
:10DF6000BFF8002816D0686800F0BAF8002811D071
:10DF700068683246C119019800F086FF009628684B
:10DF8000142148432458002203212846019BA0471E
:10DF900000208BE5102089E5F8B505465C480F4662
:10DFA0000078002805D0002D05D02868002821D150
:10DFB00003E00820F8BD0E20F8BD564C002620686E
:10DFC000002817D0A168E068484361684118686874
:10DFD00081420FD900F084F800280DD0296814225E
:10DFE0005143091968684A688968801A00F0BEFFC1
:10DFF000002903D00720F8BD1020F8BD3B460022C1
:10E00000294604200096FFF709FEF8BD404A127821
:10E01000002A0DD000280DD000290BD00268002A5C
:10E0200008D03B4A14321368002B05D004207047F7
:10E03000082070470E20704702230B6000681060B4
:10E0400000207047F8B5044631481E460078174650
:10E050000D46002807D0002D07D0002C05D02068E1
:10E0600002281BD103E00820F8BD0E20F8BD284887
:10E0700014300068002811D0084600F031F800285C
:10E080000ED0304600F02CF8002809D03B462A4636
:10E09000214602200096FFF7C1FDF8BD0720F8BD1C
:10E0A0001020F8BD08B51A4A1278002A05D00028B9
:10E0B00005D00268022A11D103E0082008BD0E2015
:10E0C00008BD134A14321268002A07D00B460022FA
:10E0D000014604200092FFF7A1FD08BD072008BDFE
:10E0E000800701D00020704701207047094810B513
:10E0F000F43840780024002807D0FFF71EFD040004
:10E1000003D0112C01D0FFF7AFFD204610BD000059
:10E1100098200020342600204B48002101704C48F4
:10E120004A4A02608160C160016108224161426027
:10E1300081610846704710B500291DD000220A6091
:10E14000434A5368002B1BD0202817D85B1E53600E
:10E15000D0682423401CD060106914684343E3183E
:10E160000B60012383409169401C19434007400F15
:10E1700091611061002010BD0E2010BD0C2010BD5B
:10E18000042010BDF0B5324A0646916800292BD014
:10E1900057691020791A4907490F14680B4624253E
:10E1A0004D436519B54206D1012495698C406540FF
:10E1B0000020956104E0491C4907490F8F42EED1C8
:10E1C000491C4E07760F956901210C469C402B4651
:10E1D00023420AD19368002B07D05B1E93605368DB
:10E1E0005B1C53603346F0E70420F0BD184A24233B
:10E1F000117C1268491E4907490F5943203150507C
:10E200000020704770B500281AD0002918D0104A95
:10E21000D368002B16D05B1ED360936824265B1C4A
:10E220009360536915681C467343EE1820330660EB
:10E23000E858641C08606007400F5061002070BD02
:10E240000E2070BD042070BDB420002048260020A0
:10E250006827002010B500280BD0FE48FE498088B2
:10E2600088420FD0132176DF00280BD0FBA270214B
:10E2700006E00846FFF786FF002803D0F7A27621C4
:10E28000FEF71AF810BD08280CD004DC002807D0CF
:10E2900006280FD108E00B280AD00C280AD105E087
:10E2A0000120704702207047032070470420704708
:10E2B000042901D0062070470520704710B50A4692
:10E2C000044603211046FFF7DEFF024603212046E5
:10E2D000FEF7DEFB002803D0E0A2B821FDF7ECFF3B
:10E2E00010BDF0B5054608790E4685B081070AD005
:10E2F000032211462846FEF7CBFB002821D0FF2140
:10E30000D6A2253146E0D34900901031FFF713FF24
:10E31000010013D1CF4CB168009A206900F0B4FD20
:10E320000098FFF763FF002801D0014606E0C948C6
:10E3300069461030FFF766FF010004D02846FFF75A
:10E34000BDFF05B0F0BD0098800802900320019049
:10E350002069039001A8FEF7BCF907000CD0092F33
:10E360001BD02069FFF70EFF002803D00146284686
:10E37000FFF7A4FF3946E1E73079E1880122401830
:10E38000E08003212846FEF783FB0028D9D0FF2137
:10E39000B2A25531FDF790FFD3E73079E1884018FC
:10E3A00081B2E18060780028CBD06089401E0004F3
:10E3B000000C6081C5D12846FEF7A9FC002804D0D6
:10E3C000FF21A6A26631FDF777FF20896081B8E7BB
:10E3D00010B5FF21A1A2A131FDF76EFF10BD10B550
:10E3E0009C4C9D49A088884208D0132176DF0028E4
:10E3F00015D09AA29F49FDF75FFF10E0A078002892
:10E400000DD074DF002804D09A4994A2FF39FDF79B
:10E4100053FFFF2098490130C8600020A07000F031
:10E4200074FA002804D093498CA20931FDF744FF07
:10E43000002010BD70B50D6804460120854A2B00F0
:10E4400000F075FE0A333032061624464B354F2352
:10E45000FEF79BF90421FFF716FF02460421204630
:10E46000FEF716FB002810D0FF217CA2D33140E03C
:10E47000FFF7B5FF002804D0FF2178A2D931FDF7BE
:10E480001BFFFEF7A8F9002809D170BDFFF7A7FF11
:10E49000002804D0FF2171A2E531FDF70DFFFEF742
:10E4A000CCF970BD022000E00320D06070BDD268BE
:10E4B0002046012A06D0022A07D0032AF6D1FFF708
:10E4C00010FF70BD00F000F970BD00F026F970BDBE
:10E4D000507088881081508170BD0020507010816C
:10E4E00070BDD1882046FEF7DBFB0028F8D05BA288
:10E4F0006249FDF7E1FE70BD10B5564CA0780028CA
:10E500000DD15F4873DF002804D05C4953A213315A
:10E51000FDF7D2FE0120584A01029160A07010BDA3
:10E5200070B54C4C0588A388132D2CD00ADC554AB5
:10E530005149102D18D0112D15D1CA60207800280E
:10E540001BD01CE0522D29D0552D0CD180790028EC
:10E5500009D11321184676DF002804D047493FA28D
:10E560005C31FDF7A9FE70BD8A60FF220132CA60EE
:10E570008088A0800020A07070BDFFF7BDFF002044
:10E58000C043A08070BD334A1846143200217FDF9B
:10E590000028F7D0394931A25431E2E70022114670
:10E5A0001846A9DF0028EDD04D212CA2C900D8E7DC
:10E5B00010B5044600F0DAF9314821461430FEF770
:10E5C00035FB2046FFF7ACFF10BD10B5B72123A2E5
:10E5D0008900FDF771FE10BD30B51E4887B00024DC
:10E5E000C460294803250560001D056026481C30CD
:10E5F00005602648FFF7CCF9002863D12448FEF7D0
:10E600004CF8FFF789FD00285CD100F0B7F82148ED
:10E610000090214801901A4869461430FEF7CCFA60
:10E62000002804D013490DA23B39FDF745FE00F048
:10E63000C9F81C21684600F086FC184801900120AA
:10E6400080030290009468460573C48104741448E2
:10E65000059427E0BC200020FFFF00002E2E5C6404
:10E6600066755F7472616E73706F72745F626C65F1
:10E670002E6300002A03000000050050060200007F
:10E68000842700200002000020070050B1E50300AD
:10E6900055E2030035E40300CBE50300CD0C000098
:10E6A000D1E303000690684600F00BF9002804D07F
:10E6B000FF21674AB831FDF7FFFD00F0B8F8FFF71A
:10E6C0001BFF002007B030BD70B50546087904284F
:10E6D00009D0032201212846FEF7DAF900281BD0D1
:10E6E0005B4ACC2116E08C68204600F02EFCE178D5
:10E6F0000002000A09060843FDF7D2FF0121FFF7D7
:10E70000C2FD024601212846FEF7C2F9002803D0C7
:10E710004F4ADD21FDF7D0FD70BDFEB50446012056
:10E720000090886802900879002283070FD0800744
:10E73000800F0422121A0020034606E00E79029D83
:10E740003618B600401CAB51C0B29042F6D30879DF
:10E750008018800801906846FDF7F2FF0221FFF75C
:10E7600092FD024602212046FEF792F9002804D0CD
:10E77000FF21374A1031FDF79FFDFEBD0EB5112078
:10E7800069460872072233A102A87CDF002803D063
:10E790002F4A3249FDF790FD00200090092269467A
:10E7A00001900A800C224A808880FF209130C88026
:10E7B00068467ADF002804D05521254AC900FDF7B4
:10E7C0007BFD0EBD10B592B006216846017124484C
:10E7D000017968468170234901803C2102A800F03C
:10E7E000B2FB02200290002468464473012101829A
:10E7F00001A80590684681830890214602A800F090
:10E8000025FA002804D01549114A2831FDF754FD96
:10E8100013481421143800F096FB11481438047082
:10E820004460047228210182448212B010BD0E4956
:10E830001E200880887801221043E12210400C300D
:10E84000DF22104088700720C870102008717047C0
:10E850005CE6030044667554617267009E02000026
:10E860009827002030150000D020002038B56749D7
:10E87000674A488890420FD04A78664C521CD2B200
:10E880004A70237B934208D3083175DF002803D0F8
:10E89000A169002900D0884738BD00254D70217C32
:10E8A000002907D03B2176DF002803D0A169002989
:10E8B00000D0884761690029EED0684600958847F6
:10E8C00038BD70B5054601461C225248FDF762FC72
:10E8D0004E4C002626702968002907D00822A0186F
:10E8E00000F0D2FA204608307ADF02E047480830CC
:10E8F0007BDF002808D1401E608044486670464A8D
:10E900000021001DFEF759FC70BD10B53F4840685E
:10E91000FEF704FD10BDF8B53C48103000F069F872
:10E9200000263A4D3B4C002806D06169002919D0D9
:10E9300001200090684614E02878002804D061691E
:10E9400000290FD00096F5E7687800280CD0A16860
:10E9500000226868FEF778FC002803D0A16900292E
:10E9600000D088472E70F8BD6168F1E7F8B5294CF2
:10E9700002880027254DE689102A18D029464968C3
:10E98000112A21D0122A2DD0502A0FD1801D0288A1
:10E99000B2420BD1028B022A08D1C27E837E1002C2
:10E9A0001843C007C00F13D0FFF7B5FFF8BD81882B
:10E9B00069800146154808220E31103000F064FAD3
:10E9C0006F70002EF0D0F8BD0020C04368806F70DB
:10E9D0000846FEF7A3FC0028F5D0A1690029F2D073
:10E9E0008847F8BD811D09480822103000F04CFA14
:10E9F000DAE74188054808300288914204D340880C
:10EA0000814201D80120704700207047D8200020A3
:10EA1000FFFF0000C02700206DE80300FFB583B0B2
:10EA2000074600200C9C8646267805463AE0786822
:10EA3000A90041180A88684682804988C18000225E
:10EA4000694601A865DF002810D16846017805985D
:10EA5000814226D17046002801D0002200E0022227
:10EA60002078891841181F2902D90C2007B0F0BD61
:10EA70007146002908D1401CC0B2411C069B049A73
:10EA800021701A5401208646217806980A18694692
:10EA900001A865DF0028E9D1694620780978401887
:10EAA00020706D1C3888A842C1DC7046002804D054
:10EAB00020780699801B401E88550020D6E7F8B5BF
:10EAC0001546069C1E46074602220094FFF7A6FF45
:10EAD000002806D133461022294638460094FFF715
:10EAE0009DFFF8BDF7B582B0002605461670006898
:10EAF0001446002805D02846039900F0DFF80600E8
:10EB00002DD1687900281BD02078039F001D1F2875
:10EB100024D8684679DF002821D121780322481CB7
:10EB200020707A5421781922481C20707A54207859
:10EB3000C1196846008800F0BCF8217840182070A0
:10EB40002989002923D001208446EA680398002AF5
:10EB500007D0227853189B1C1F2B04D90C2005B01A
:10EB6000F0BD0720FBE71346521C491C2270C1541C
:10EB700022786746511C2170875423782A891818F7
:10EB8000E96800F081F92078297A40182070286916
:10EB9000002815D00021415622788C46D01C0399BC
:10EBA0001F28DBD8501C022320708B5422780A23A4
:10EBB000501C20708B5420786246431C23700A54EA
:10EBC000A88A002809D02846009406220221143081
:10EBD000039BFFF774FF0600C1D1A88B002809D062
:10EBE00028460094072203211C30039BFFF767FF90
:10EBF0000600B4D1A88C002809D02846009415221C
:10EC000014212430039BFFF75AFF0600A7D1E86ABE
:10EC1000002805D02246039900F085F806009ED111
:10EC2000286B002805D02246039900F0BBF80600A7
:10EC300095D13820405D002806D022462846039909
:10EC400000F0E2F806008AD1304688E770B50D463C
:10EC500092B000216A46117007241171002812D069
:10EC60000189002905D0C168002902D00978490727
:10EC700002D4204612B070BD02A9FFF733FF00286E
:10EC8000F8D102AE00E00026002D0BD02889002824
:10EC9000EFD101AA0AA92846FFF724FF0028E9D1ED
:10ECA0000AAA00E00022684603790178304672DF44
:10ECB000E0E70870000A487002207047F8B5147841
:10ECC0000746A01C15460E461F2803D83879801C1D
:10ECD0001F2801D90C20F8BD1D20001B80B26946F9
:10ECE000864608803019801C7DDF0028F3D1386803
:10ECF000022805D168460088704501D8092107E03F
:10ED000038790821002801D0704501D9684600886B
:10ED1000421C3255641CE2B2B1542978801C081898
:10ED200028700020F8BDF8B50D4611780646881DFC
:10ED300014461F2801D90C20F8BD33880720062B64
:10ED4000FAD31927FF01BB4202D94E4A9342F3D1AD
:10ED50007288062AF0D3BA4202D94A4FBA42EBD19E
:10ED6000484FBB4203D0BA4201D09342E4D8481C7A
:10ED7000052220706A5420781222411C21702A54E6
:10ED8000207841193088FFF794FF21784018C0B2ED
:10ED9000207041197088FFF78CFF2178401820708F
:10EDA0000020F8BD70B5054600790E46801C14465B
:10EDB000C0B21178821C8A181F2A01D90C2070BD9C
:10EDC0000A46491C401C2170B0542078FF22411C87
:10EDD00021703254207881192888FFF76AFF217842
:10EDE0004018C0B22070AA88002A09D0A96800295A
:10EDF00008D0801900F048F8207829794018207050
:10EE0000002070BD072070BDF7B582B0029814468F
:10EE1000406B0F46002832D0029800252030009029
:10EE200028E00298416B0C2068430E182178307955
:10EE30004A1CC01C2270785421781622481C20706D
:10EE40007A542078C1193088FFF733FF21784018B1
:10EE5000C0B22070B288002A09D0B16800290ED053
:10EE6000C01900F011F820783179401820706D1C1D
:10EE70000098EDB2007EA842D3D800206FE60720AC
:10EE80006DE60000FFFF0000F8B5042A2CD38307CD
:10EE900012D00B78491C0370401C521E83070BD004
:10EEA0000B78491C0370401C521E830704D00B785A
:10EEB000491C0370401C521E8B079B0F05D0C91ABA
:10EEC000DF002023DE1B08C90AE0FDF763F9F8BD67
:10EED0001D4608C9FD401C46B4402C4310C0121FFB
:10EEE000042AF5D2F308C91A521EF0D40B78491C33
:10EEF0000370401C521EEAD40B78491C0370401C5E
:10EF0000521EE4D409780170F8BD01E004C0091F65
:10EF10000429FBD28B0701D50280801CC90700D0D1
:10EF20000270704700290BD0C30702D00270401C4A
:10EF3000491E022904D3830702D50280801C891E42
:10EF4000E3E70022EEE70022DFE70378C278194604
:10EF5000437812061B0219438378C0781B041943B7
:10EF600011430902090A00060843704700220309F9
:10EF70008B422CD3030A8B4211D300239C464EE0D4
:10EF800003460B433CD4002243088B4231D3030990
:10EF90008B421CD3030A8B4201D394463FE0C30942
:10EFA0008B4201D3CB01C01A524183098B4201D35A
:10EFB0008B01C01A524143098B4201D34B01C01A45
:10EFC000524103098B4201D30B01C01A5241C308BD
:10EFD0008B4201D3CB00C01A524183088B4201D32C
:10EFE0008B00C01A524143088B4201D34B00C01A18
:10EFF0005241411A00D201465241104670475DE02D
:10F00000CA0F00D04942031000D3404253400022AF
:10F010009C4603098B422DD3030A8B4212D3FC2258
:10F02000890112BA030A8B420CD3890192118B42D7
:10F0300008D3890192118B4204D389013AD09211ED
:10F0400000E08909C3098B4201D3CB01C01A5241A8
:10F0500083098B4201D38B01C01A524143098B4271
:10F0600001D34B01C01A524103098B4201D30B015A
:10F07000C01A5241C3088B4201D3CB00C01A52417F
:10F0800083088B4201D38B00C01A5241D9D2430866
:10F090008B4201D34B00C01A5241411A00D20146A3
:10F0A000634652415B10104601D34042002B00D50D
:10F0B0004942704763465B1000D3404201B50020CF
:10F0C000C046C04602BD704770477047754600F0A5
:10F0D00023F8AE46050069465346C008C000854681
:10F0E00018B020B5FDF7D2F860BC00274908B64635
:10F0F0000026C0C5C0C5C0C5C0C5C0C5C0C5C0C547
:10F10000C0C5403D49008D4670470446C046C046D4
:10F110002046FDF722F8000000487047DC27002059
:10F1200001491820ABBEFEE726000200704730B44C
:10F130007446641E2578641CAB4200D21D46635D94
:10F140005B00E31830BC184702000000000000001C
:10F15000000000000000000023D1BCEA5F78231506
:10F16000DEEF12120000000088F1030000200020F2
:10F17000F000000004C1030078F20300F02000203A
:10F180005013000020C103000024F4000000000020
:10F19000000000000000000000000000000000006F
:10F1A000000000000000000000000000000000005F
:10F1B000000000000000000000000000000000004F
:10F1C000000000000000000000000000000000003F
:10F1D000000000000000000000000000000000002F
:10F1E000000000000000000000000000000000001F
:10F1F000000000000000000000000000000000000F
:10F2000000000000000000000000000000000000FE
:10F2100000000000000000000000000000000000EE
:10F2200000000000000000000000000000000000DE
:10F2300000000000000000000000000000000000CE
:10F240000000000000000000FFFF000000000000C0
:10F2500000000000000000000000000000000000AE
:10F26000000000000000000000000000000000009E
:08F27000000000000000000096
:020000041000EA
:0410140000C0030015
:040000050003C0C173
:00000001FF
